{
  "_format": "hh-sol-artifact-1",
  "contractName": "RideDapp",
  "sourceName": "contracts/RideDapp.sol",
  "abi": [
    {
      "anonymous": false,
      "inputs": [
        {
          "indexed": true,
          "internalType": "address",
          "name": "previousOwner",
          "type": "address"
        },
        {
          "indexed": true,
          "internalType": "address",
          "name": "newOwner",
          "type": "address"
        }
      ],
      "name": "OwnershipTransferred",
      "type": "event"
    },
    {
      "anonymous": false,
      "inputs": [
        {
          "indexed": false,
          "internalType": "address",
          "name": "from",
          "type": "address"
        },
        {
          "indexed": false,
          "internalType": "address",
          "name": "receiver",
          "type": "address"
        },
        {
          "indexed": false,
          "internalType": "uint256",
          "name": "amount",
          "type": "uint256"
        }
      ],
      "name": "Transfer",
      "type": "event"
    },
    {
      "inputs": [
        {
          "internalType": "uint256",
          "name": "_requestId",
          "type": "uint256"
        },
        {
          "internalType": "string",
          "name": "_riderId",
          "type": "string"
        },
        {
          "internalType": "address",
          "name": "_riderWallet",
          "type": "address"
        }
      ],
      "name": "acceptRide",
      "outputs": [],
      "stateMutability": "nonpayable",
      "type": "function"
    },
    {
      "inputs": [],
      "name": "addDriver",
      "outputs": [],
      "stateMutability": "nonpayable",
      "type": "function"
    },
    {
      "inputs": [
        {
          "internalType": "string",
          "name": "_riderId",
          "type": "string"
        }
      ],
      "name": "addRequest",
      "outputs": [],
      "stateMutability": "payable",
      "type": "function"
    },
    {
      "inputs": [],
      "name": "addRider",
      "outputs": [],
      "stateMutability": "nonpayable",
      "type": "function"
    },
    {
      "inputs": [],
      "name": "checkDriver",
      "outputs": [
        {
          "internalType": "bool",
          "name": "",
          "type": "bool"
        }
      ],
      "stateMutability": "view",
      "type": "function"
    },
    {
      "inputs": [],
      "name": "checkRider",
      "outputs": [
        {
          "internalType": "bool",
          "name": "",
          "type": "bool"
        }
      ],
      "stateMutability": "view",
      "type": "function"
    },
    {
      "inputs": [],
      "name": "driverCount",
      "outputs": [
        {
          "internalType": "uint256",
          "name": "",
          "type": "uint256"
        }
      ],
      "stateMutability": "view",
      "type": "function"
    },
    {
      "inputs": [
        {
          "internalType": "address",
          "name": "",
          "type": "address"
        }
      ],
      "name": "driverMapping",
      "outputs": [
        {
          "internalType": "uint256",
          "name": "",
          "type": "uint256"
        }
      ],
      "stateMutability": "view",
      "type": "function"
    },
    {
      "inputs": [],
      "name": "owner",
      "outputs": [
        {
          "internalType": "address",
          "name": "",
          "type": "address"
        }
      ],
      "stateMutability": "view",
      "type": "function"
    },
    {
      "inputs": [],
      "name": "renounceOwnership",
      "outputs": [],
      "stateMutability": "nonpayable",
      "type": "function"
    },
    {
      "inputs": [],
      "name": "requestCount",
      "outputs": [
        {
          "internalType": "uint256",
          "name": "",
          "type": "uint256"
        }
      ],
      "stateMutability": "view",
      "type": "function"
    },
    {
      "inputs": [
        {
          "internalType": "uint256",
          "name": "",
          "type": "uint256"
        }
      ],
      "name": "requestData",
      "outputs": [
        {
          "internalType": "address",
          "name": "requesterAddress",
          "type": "address"
        },
        {
          "internalType": "uint256",
          "name": "timestamp",
          "type": "uint256"
        },
        {
          "internalType": "uint256",
          "name": "cost",
          "type": "uint256"
        }
      ],
      "stateMutability": "view",
      "type": "function"
    },
    {
      "inputs": [],
      "name": "riderCount",
      "outputs": [
        {
          "internalType": "uint256",
          "name": "",
          "type": "uint256"
        }
      ],
      "stateMutability": "view",
      "type": "function"
    },
    {
      "inputs": [
        {
          "internalType": "address",
          "name": "",
          "type": "address"
        }
      ],
      "name": "riderMapping",
      "outputs": [
        {
          "internalType": "uint256",
          "name": "",
          "type": "uint256"
        }
      ],
      "stateMutability": "view",
      "type": "function"
    },
    {
      "inputs": [
        {
          "internalType": "address",
          "name": "newOwner",
          "type": "address"
        }
      ],
      "name": "transferOwnership",
      "outputs": [],
      "stateMutability": "nonpayable",
      "type": "function"
    }
  ],
  "bytecode": "0x608060405234801561001057600080fd5b5061002d61002261003260201b60201c565b61003a60201b60201c565b6100fe565b600033905090565b60008060009054906101000a900473ffffffffffffffffffffffffffffffffffffffff169050816000806101000a81548173ffffffffffffffffffffffffffffffffffffffff021916908373ffffffffffffffffffffffffffffffffffffffff1602179055508173ffffffffffffffffffffffffffffffffffffffff168173ffffffffffffffffffffffffffffffffffffffff167f8be0079c531659141344cd1fd0a4f28419497f9722a3daafe3b4186f6b6457e060405160405180910390a35050565b61131e8061010d6000396000f3fe6080604052600436106100e85760003560e01c80635badbe4c1161008a578063a43f411111610059578063a43f4111146102b1578063d1bba998146102dc578063f2fde38b14610307578063f359d66d14610330576100e8565b80635badbe4c1461021b578063715018a6146102465780638da5cb5b1461025d578063a3c684d714610288576100e8565b80632e7e34c9116100c65780632e7e34c914610185578063367412fa146101b057806346990b69146101c757806358a4757c146101de576100e8565b80630d6399ca146100ed578063128d72151461012a5780632adb9e3c14610146575b600080fd5b3480156100f957600080fd5b50610114600480360381019061010f9190610cd7565b61035b565b6040516101219190611090565b60405180910390f35b610144600480360381019061013f9190610d00565b610373565b005b34801561015257600080fd5b5061016d60048036038101906101689190610d41565b6104eb565b60405161017c93929190610fbe565b60405180910390f35b34801561019157600080fd5b5061019a610535565b6040516101a79190610ff5565b60405180910390f35b3480156101bc57600080fd5b506101c561058f565b005b3480156101d357600080fd5b506101dc6105ef565b005b3480156101ea57600080fd5b5061020560048036038101906102009190610cd7565b61064f565b6040516102129190611090565b60405180910390f35b34801561022757600080fd5b50610230610667565b60405161023d9190611090565b60405180910390f35b34801561025257600080fd5b5061025b61066d565b005b34801561026957600080fd5b506102726106f5565b60405161027f9190610f6c565b60405180910390f35b34801561029457600080fd5b506102af60048036038101906102aa9190610d6a565b61071e565b005b3480156102bd57600080fd5b506102c6610a1b565b6040516102d39190611090565b60405180910390f35b3480156102e857600080fd5b506102f1610a21565b6040516102fe9190610ff5565b60405180910390f35b34801561031357600080fd5b5061032e60048036038101906103299190610cd7565b610a7b565b005b34801561033c57600080fd5b50610345610b73565b6040516103529190611090565b60405180910390f35b60026020528060005260406000206000915090505481565b61037b610a21565b6103ba576040517f08c379a00000000000000000000000000000000000000000000000000000000081526004016103b190611010565b60405180910390fd5b600860008154809291906103cd90611213565b9190505550346004826040516103e39190610f55565b908152602001604051809103902060003373ffffffffffffffffffffffffffffffffffffffff1673ffffffffffffffffffffffffffffffffffffffff168152602001908152602001600020600082825461043d9190611133565b9250508190555060405180606001604052803373ffffffffffffffffffffffffffffffffffffffff1681526020014281526020013481525060096000600854815260200190815260200160002060008201518160000160006101000a81548173ffffffffffffffffffffffffffffffffffffffff021916908373ffffffffffffffffffffffffffffffffffffffff160217905550602082015181600101556040820151816002015590505050565b60096020528060005260406000206000915090508060000160009054906101000a900473ffffffffffffffffffffffffffffffffffffffff16908060010154908060020154905083565b600080600260003373ffffffffffffffffffffffffffffffffffffffff1673ffffffffffffffffffffffffffffffffffffffff168152602001908152602001600020541115610587576001905061058c565b600090505b90565b600660008154809291906105a290611213565b9190505550600654600360003373ffffffffffffffffffffffffffffffffffffffff1673ffffffffffffffffffffffffffffffffffffffff16815260200190815260200160002081905550565b6005600081548092919061060290611213565b9190505550600554600260003373ffffffffffffffffffffffffffffffffffffffff1673ffffffffffffffffffffffffffffffffffffffff16815260200190815260200160002081905550565b60036020528060005260406000206000915090505481565b60085481565b610675610b79565b73ffffffffffffffffffffffffffffffffffffffff166106936106f5565b73ffffffffffffffffffffffffffffffffffffffff16146106e9576040517f08c379a00000000000000000000000000000000000000000000000000000000081526004016106e090611070565b60405180910390fd5b6106f36000610b81565b565b60008060009054906101000a900473ffffffffffffffffffffffffffffffffffffffff16905090565b610726610535565b610765576040517f08c379a000000000000000000000000000000000000000000000000000000000815260040161075c90611050565b60405180910390fd5b60006004836040516107779190610f55565b908152602001604051809103902060008373ffffffffffffffffffffffffffffffffffffffff1673ffffffffffffffffffffffffffffffffffffffff1681526020019081526020016000205490503373ffffffffffffffffffffffffffffffffffffffff166108fc829081150290604051600060405180830381858888f1935050505015801561080b573d6000803e3d6000fd5b5060016007600082825461081f9190611133565b92505081905550600160405180608001604052806009600088815260200190815260200160002060000160009054906101000a900473ffffffffffffffffffffffffffffffffffffffff1673ffffffffffffffffffffffffffffffffffffffff1681526020013373ffffffffffffffffffffffffffffffffffffffff1681526020014281526020016009600088815260200190815260200160002060020154815250908060018154018082558091505060019003906000526020600020906004020160009091909190915060008201518160000160006101000a81548173ffffffffffffffffffffffffffffffffffffffff021916908373ffffffffffffffffffffffffffffffffffffffff16021790555060208201518160010160006101000a81548173ffffffffffffffffffffffffffffffffffffffff021916908373ffffffffffffffffffffffffffffffffffffffff160217905550604082015181600201556060820151816003015550507fddf252ad1be2c89b69c2b068fc378daa952ba7f163c4a11628f55a4df523b3ef6009600086815260200190815260200160002060000160009054906101000a900473ffffffffffffffffffffffffffffffffffffffff16336009600088815260200190815260200160002060020154604051610a0d93929190610f87565b60405180910390a150505050565b60065481565b600080600360003373ffffffffffffffffffffffffffffffffffffffff1673ffffffffffffffffffffffffffffffffffffffff168152602001908152602001600020541115610a735760019050610a78565b600090505b90565b610a83610b79565b73ffffffffffffffffffffffffffffffffffffffff16610aa16106f5565b73ffffffffffffffffffffffffffffffffffffffff1614610af7576040517f08c379a0000000000000000000000000000000000000000000000000000000008152600401610aee90611070565b60405180910390fd5b600073ffffffffffffffffffffffffffffffffffffffff168173ffffffffffffffffffffffffffffffffffffffff161415610b67576040517f08c379a0000000000000000000000000000000000000000000000000000000008152600401610b5e90611030565b60405180910390fd5b610b7081610b81565b50565b60055481565b600033905090565b60008060009054906101000a900473ffffffffffffffffffffffffffffffffffffffff169050816000806101000a81548173ffffffffffffffffffffffffffffffffffffffff021916908373ffffffffffffffffffffffffffffffffffffffff1602179055508173ffffffffffffffffffffffffffffffffffffffff168173ffffffffffffffffffffffffffffffffffffffff167f8be0079c531659141344cd1fd0a4f28419497f9722a3daafe3b4186f6b6457e060405160405180910390a35050565b6000610c58610c53846110dc565b6110ab565b905082815260208101848484011115610c7057600080fd5b610c7b8482856111d1565b509392505050565b600081359050610c92816112ba565b92915050565b600082601f830112610ca957600080fd5b8135610cb9848260208601610c45565b91505092915050565b600081359050610cd1816112d1565b92915050565b600060208284031215610ce957600080fd5b6000610cf784828501610c83565b91505092915050565b600060208284031215610d1257600080fd5b600082013567ffffffffffffffff811115610d2c57600080fd5b610d3884828501610c98565b91505092915050565b600060208284031215610d5357600080fd5b6000610d6184828501610cc2565b91505092915050565b600080600060608486031215610d7f57600080fd5b6000610d8d86828701610cc2565b935050602084013567ffffffffffffffff811115610daa57600080fd5b610db686828701610c98565b9250506040610dc786828701610c83565b9150509250925092565b610dda81611189565b82525050565b610de98161119b565b82525050565b6000610dfa8261110c565b610e048185611128565b9350610e148185602086016111e0565b80840191505092915050565b6000610e2d601183611117565b91507f6e6f7420612076616c69642072696465720000000000000000000000000000006000830152602082019050919050565b6000610e6d602683611117565b91507f4f776e61626c653a206e6577206f776e657220697320746865207a65726f206160008301527f64647265737300000000000000000000000000000000000000000000000000006020830152604082019050919050565b6000610ed3601283611117565b91507f6e6f7420612076616c69642064726976657200000000000000000000000000006000830152602082019050919050565b6000610f13602083611117565b91507f4f776e61626c653a2063616c6c6572206973206e6f7420746865206f776e65726000830152602082019050919050565b610f4f816111c7565b82525050565b6000610f618284610def565b915081905092915050565b6000602082019050610f816000830184610dd1565b92915050565b6000606082019050610f9c6000830186610dd1565b610fa96020830185610dd1565b610fb66040830184610f46565b949350505050565b6000606082019050610fd36000830186610dd1565b610fe06020830185610f46565b610fed6040830184610f46565b949350505050565b600060208201905061100a6000830184610de0565b92915050565b6000602082019050818103600083015261102981610e20565b9050919050565b6000602082019050818103600083015261104981610e60565b9050919050565b6000602082019050818103600083015261106981610ec6565b9050919050565b6000602082019050818103600083015261108981610f06565b9050919050565b60006020820190506110a56000830184610f46565b92915050565b6000604051905081810181811067ffffffffffffffff821117156110d2576110d161128b565b5b8060405250919050565b600067ffffffffffffffff8211156110f7576110f661128b565b5b601f19601f8301169050602081019050919050565b600081519050919050565b600082825260208201905092915050565b600081905092915050565b600061113e826111c7565b9150611149836111c7565b9250827fffffffffffffffffffffffffffffffffffffffffffffffffffffffffffffffff0382111561117e5761117d61125c565b5b828201905092915050565b6000611194826111a7565b9050919050565b60008115159050919050565b600073ffffffffffffffffffffffffffffffffffffffff82169050919050565b6000819050919050565b82818337600083830152505050565b60005b838110156111fe5780820151818401526020810190506111e3565b8381111561120d576000848401525b50505050565b600061121e826111c7565b91507fffffffffffffffffffffffffffffffffffffffffffffffffffffffffffffffff8214156112515761125061125c565b5b600182019050919050565b7f4e487b7100000000000000000000000000000000000000000000000000000000600052601160045260246000fd5b7f4e487b7100000000000000000000000000000000000000000000000000000000600052604160045260246000fd5b6112c381611189565b81146112ce57600080fd5b50565b6112da816111c7565b81146112e557600080fd5b5056fea2646970667358221220be978d81b469caa2198b9386ddb335fbef0e55905b8840176cf5b1a65769115764736f6c63430008000033",
  "linkReferences": {},
  "deployedLinkReferences": {}
}