{
  "_format": "hh-sol-artifact-1",
  "contractName": "RideDapp",
  "sourceName": "contracts/RideDapp.sol",
  "abi": [
    {
      "anonymous": false,
      "inputs": [
        {
          "indexed": true,
          "internalType": "address",
          "name": "previousOwner",
          "type": "address"
        },
        {
          "indexed": true,
          "internalType": "address",
          "name": "newOwner",
          "type": "address"
        }
      ],
      "name": "OwnershipTransferred",
      "type": "event"
    },
    {
      "anonymous": false,
      "inputs": [
        {
          "indexed": false,
          "internalType": "address",
          "name": "from",
          "type": "address"
        },
        {
          "indexed": false,
          "internalType": "address",
          "name": "receiver",
          "type": "address"
        },
        {
          "indexed": false,
          "internalType": "uint256",
          "name": "amount",
          "type": "uint256"
        }
      ],
      "name": "Transfer",
      "type": "event"
    },
    {
      "inputs": [
        {
          "internalType": "uint256",
          "name": "_requestId",
          "type": "uint256"
        }
      ],
      "name": "acceptRide",
      "outputs": [],
      "stateMutability": "nonpayable",
      "type": "function"
    },
    {
      "inputs": [],
      "name": "addDriver",
      "outputs": [],
      "stateMutability": "nonpayable",
      "type": "function"
    },
    {
      "inputs": [
        {
          "internalType": "uint256",
          "name": "_distance",
          "type": "uint256"
        },
        {
          "internalType": "uint256",
          "name": "_rideTime",
          "type": "uint256"
        }
      ],
      "name": "addRequest",
      "outputs": [
        {
          "internalType": "uint256",
          "name": "",
          "type": "uint256"
        }
      ],
      "stateMutability": "nonpayable",
      "type": "function"
    },
    {
      "inputs": [],
      "name": "addRider",
      "outputs": [],
      "stateMutability": "nonpayable",
      "type": "function"
    },
    {
      "inputs": [
        {
          "internalType": "uint256",
          "name": "_distance",
          "type": "uint256"
        },
        {
          "internalType": "uint256",
          "name": "_duration",
          "type": "uint256"
        }
      ],
      "name": "calcCost",
      "outputs": [
        {
          "internalType": "uint256",
          "name": "",
          "type": "uint256"
        }
      ],
      "stateMutability": "pure",
      "type": "function"
    },
    {
      "inputs": [],
      "name": "checkDriver",
      "outputs": [
        {
          "internalType": "bool",
          "name": "",
          "type": "bool"
        }
      ],
      "stateMutability": "view",
      "type": "function"
    },
    {
      "inputs": [],
      "name": "checkRider",
      "outputs": [
        {
          "internalType": "bool",
          "name": "",
          "type": "bool"
        }
      ],
      "stateMutability": "view",
      "type": "function"
    },
    {
      "inputs": [],
      "name": "driverCount",
      "outputs": [
        {
          "internalType": "uint256",
          "name": "",
          "type": "uint256"
        }
      ],
      "stateMutability": "view",
      "type": "function"
    },
    {
      "inputs": [
        {
          "internalType": "address",
          "name": "",
          "type": "address"
        }
      ],
      "name": "driverMapping",
      "outputs": [
        {
          "internalType": "uint256",
          "name": "",
          "type": "uint256"
        }
      ],
      "stateMutability": "view",
      "type": "function"
    },
    {
      "inputs": [],
      "name": "owner",
      "outputs": [
        {
          "internalType": "address",
          "name": "",
          "type": "address"
        }
      ],
      "stateMutability": "view",
      "type": "function"
    },
    {
      "inputs": [],
      "name": "renounceOwnership",
      "outputs": [],
      "stateMutability": "nonpayable",
      "type": "function"
    },
    {
      "inputs": [],
      "name": "requestCount",
      "outputs": [
        {
          "internalType": "uint256",
          "name": "",
          "type": "uint256"
        }
      ],
      "stateMutability": "view",
      "type": "function"
    },
    {
      "inputs": [
        {
          "internalType": "uint256",
          "name": "",
          "type": "uint256"
        }
      ],
      "name": "requestData",
      "outputs": [
        {
          "internalType": "address",
          "name": "requesterAddress",
          "type": "address"
        },
        {
          "internalType": "uint256",
          "name": "timestamp",
          "type": "uint256"
        },
        {
          "internalType": "uint256",
          "name": "cost",
          "type": "uint256"
        }
      ],
      "stateMutability": "view",
      "type": "function"
    },
    {
      "inputs": [],
      "name": "riderCount",
      "outputs": [
        {
          "internalType": "uint256",
          "name": "",
          "type": "uint256"
        }
      ],
      "stateMutability": "view",
      "type": "function"
    },
    {
      "inputs": [
        {
          "internalType": "address",
          "name": "",
          "type": "address"
        }
      ],
      "name": "riderMapping",
      "outputs": [
        {
          "internalType": "uint256",
          "name": "",
          "type": "uint256"
        }
      ],
      "stateMutability": "view",
      "type": "function"
    },
    {
      "inputs": [
        {
          "internalType": "address",
          "name": "newOwner",
          "type": "address"
        }
      ],
      "name": "transferOwnership",
      "outputs": [],
      "stateMutability": "nonpayable",
      "type": "function"
    }
  ],
  "bytecode": "0x608060405234801561001057600080fd5b5061002d61002261003260201b60201c565b61003a60201b60201c565b6100fe565b600033905090565b60008060009054906101000a900473ffffffffffffffffffffffffffffffffffffffff169050816000806101000a81548173ffffffffffffffffffffffffffffffffffffffff021916908373ffffffffffffffffffffffffffffffffffffffff1602179055508173ffffffffffffffffffffffffffffffffffffffff168173ffffffffffffffffffffffffffffffffffffffff167f8be0079c531659141344cd1fd0a4f28419497f9722a3daafe3b4186f6b6457e060405160405180910390a35050565b6110ce8061010d6000396000f3fe608060405234801561001057600080fd5b50600436106101005760003560e01c8063715018a611610097578063c51562cb11610066578063c51562cb1461028d578063d1bba998146102a9578063f2fde38b146102c7578063f359d66d146102e357610100565b8063715018a6146102175780638da5cb5b14610221578063a43f41111461023f578063a5a13ddc1461025d57610100565b8063367412fa116100d3578063367412fa146101b557806346990b69146101bf57806358a4757c146101c95780635badbe4c146101f957610100565b80630d6399ca14610105578063100e72ad146101355780632adb9e3c146101655780632e7e34c914610197575b600080fd5b61011f600480360381019061011a9190610b69565b610301565b60405161012c9190610e6e565b60405180910390f35b61014f600480360381019061014a9190610bbb565b610319565b60405161015c9190610e6e565b60405180910390f35b61017f600480360381019061017a9190610b92565b610438565b60405161018e93929190610d9c565b60405180910390f35b61019f610482565b6040516101ac9190610dd3565b60405180910390f35b6101bd6104dc565b005b6101c761053c565b005b6101e360048036038101906101de9190610b69565b61059c565b6040516101f09190610e6e565b60405180910390f35b6102016105b4565b60405161020e9190610e6e565b60405180910390f35b61021f6105ba565b005b610229610642565b6040516102369190610d4a565b60405180910390f35b61024761066b565b6040516102549190610e6e565b60405180910390f35b61027760048036038101906102729190610bbb565b610671565b6040516102849190610e6e565b60405180910390f35b6102a760048036038101906102a29190610b92565b6106c8565b005b6102b161091b565b6040516102be9190610dd3565b60405180910390f35b6102e160048036038101906102dc9190610b69565b610975565b005b6102eb610a6d565b6040516102f89190610e6e565b60405180910390f35b60026020528060005260406000206000915090505481565b600061032361091b565b610362576040517f08c379a000000000000000000000000000000000000000000000000000000000815260040161035990610dee565b60405180910390fd5b6007600081548092919061037590610fc3565b919050555060006103868484610671565b905060405180606001604052803373ffffffffffffffffffffffffffffffffffffffff1681526020014281526020018281525060086000600754815260200190815260200160002060008201518160000160006101000a81548173ffffffffffffffffffffffffffffffffffffffff021916908373ffffffffffffffffffffffffffffffffffffffff160217905550602082015181600101556040820151816002015590505060075491505092915050565b60086020528060005260406000206000915090508060000160009054906101000a900473ffffffffffffffffffffffffffffffffffffffff16908060010154908060020154905083565b600080600260003373ffffffffffffffffffffffffffffffffffffffff1673ffffffffffffffffffffffffffffffffffffffff1681526020019081526020016000205411156104d457600190506104d9565b600090505b90565b600560008154809291906104ef90610fc3565b9190505550600554600360003373ffffffffffffffffffffffffffffffffffffffff1673ffffffffffffffffffffffffffffffffffffffff16815260200190815260200160002081905550565b6004600081548092919061054f90610fc3565b9190505550600454600260003373ffffffffffffffffffffffffffffffffffffffff1673ffffffffffffffffffffffffffffffffffffffff16815260200190815260200160002081905550565b60036020528060005260406000206000915090505481565b60075481565b6105c2610a73565b73ffffffffffffffffffffffffffffffffffffffff166105e0610642565b73ffffffffffffffffffffffffffffffffffffffff1614610636576040517f08c379a000000000000000000000000000000000000000000000000000000000815260040161062d90610e4e565b60405180910390fd5b6106406000610a7b565b565b60008060009054906101000a900473ffffffffffffffffffffffffffffffffffffffff16905090565b60055481565b6000806608b313baabfb2490506000606460198561068f9190610f21565b60608761069c9190610f21565b6106a69190610e9a565b6106b09190610ef0565b826106bb9190610e9a565b9050809250505092915050565b6106d0610482565b61070f576040517f08c379a000000000000000000000000000000000000000000000000000000000815260040161070690610e2e565b60405180910390fd5b6001600660008282546107229190610e9a565b92505081905550600160405180608001604052806008600085815260200190815260200160002060000160009054906101000a900473ffffffffffffffffffffffffffffffffffffffff1673ffffffffffffffffffffffffffffffffffffffff1681526020013373ffffffffffffffffffffffffffffffffffffffff1681526020014281526020016008600085815260200190815260200160002060020154815250908060018154018082558091505060019003906000526020600020906004020160009091909190915060008201518160000160006101000a81548173ffffffffffffffffffffffffffffffffffffffff021916908373ffffffffffffffffffffffffffffffffffffffff16021790555060208201518160010160006101000a81548173ffffffffffffffffffffffffffffffffffffffff021916908373ffffffffffffffffffffffffffffffffffffffff160217905550604082015181600201556060820151816003015550507fddf252ad1be2c89b69c2b068fc378daa952ba7f163c4a11628f55a4df523b3ef6008600083815260200190815260200160002060000160009054906101000a900473ffffffffffffffffffffffffffffffffffffffff1633600860008581526020019081526020016000206002015460405161091093929190610d65565b60405180910390a150565b600080600360003373ffffffffffffffffffffffffffffffffffffffff1673ffffffffffffffffffffffffffffffffffffffff16815260200190815260200160002054111561096d5760019050610972565b600090505b90565b61097d610a73565b73ffffffffffffffffffffffffffffffffffffffff1661099b610642565b73ffffffffffffffffffffffffffffffffffffffff16146109f1576040517f08c379a00000000000000000000000000000000000000000000000000000000081526004016109e890610e4e565b60405180910390fd5b600073ffffffffffffffffffffffffffffffffffffffff168173ffffffffffffffffffffffffffffffffffffffff161415610a61576040517f08c379a0000000000000000000000000000000000000000000000000000000008152600401610a5890610e0e565b60405180910390fd5b610a6a81610a7b565b50565b60045481565b600033905090565b60008060009054906101000a900473ffffffffffffffffffffffffffffffffffffffff169050816000806101000a81548173ffffffffffffffffffffffffffffffffffffffff021916908373ffffffffffffffffffffffffffffffffffffffff1602179055508173ffffffffffffffffffffffffffffffffffffffff168173ffffffffffffffffffffffffffffffffffffffff167f8be0079c531659141344cd1fd0a4f28419497f9722a3daafe3b4186f6b6457e060405160405180910390a35050565b600081359050610b4e8161106a565b92915050565b600081359050610b6381611081565b92915050565b600060208284031215610b7b57600080fd5b6000610b8984828501610b3f565b91505092915050565b600060208284031215610ba457600080fd5b6000610bb284828501610b54565b91505092915050565b60008060408385031215610bce57600080fd5b6000610bdc85828601610b54565b9250506020610bed85828601610b54565b9150509250929050565b610c0081610f7b565b82525050565b610c0f81610f8d565b82525050565b6000610c22601183610e89565b91507f6e6f7420612076616c69642072696465720000000000000000000000000000006000830152602082019050919050565b6000610c62602683610e89565b91507f4f776e61626c653a206e6577206f776e657220697320746865207a65726f206160008301527f64647265737300000000000000000000000000000000000000000000000000006020830152604082019050919050565b6000610cc8601283610e89565b91507f6e6f7420612076616c69642064726976657200000000000000000000000000006000830152602082019050919050565b6000610d08602083610e89565b91507f4f776e61626c653a2063616c6c6572206973206e6f7420746865206f776e65726000830152602082019050919050565b610d4481610fb9565b82525050565b6000602082019050610d5f6000830184610bf7565b92915050565b6000606082019050610d7a6000830186610bf7565b610d876020830185610bf7565b610d946040830184610d3b565b949350505050565b6000606082019050610db16000830186610bf7565b610dbe6020830185610d3b565b610dcb6040830184610d3b565b949350505050565b6000602082019050610de86000830184610c06565b92915050565b60006020820190508181036000830152610e0781610c15565b9050919050565b60006020820190508181036000830152610e2781610c55565b9050919050565b60006020820190508181036000830152610e4781610cbb565b9050919050565b60006020820190508181036000830152610e6781610cfb565b9050919050565b6000602082019050610e836000830184610d3b565b92915050565b600082825260208201905092915050565b6000610ea582610fb9565b9150610eb083610fb9565b9250827fffffffffffffffffffffffffffffffffffffffffffffffffffffffffffffffff03821115610ee557610ee461100c565b5b828201905092915050565b6000610efb82610fb9565b9150610f0683610fb9565b925082610f1657610f1561103b565b5b828204905092915050565b6000610f2c82610fb9565b9150610f3783610fb9565b9250817fffffffffffffffffffffffffffffffffffffffffffffffffffffffffffffffff0483118215151615610f7057610f6f61100c565b5b828202905092915050565b6000610f8682610f99565b9050919050565b60008115159050919050565b600073ffffffffffffffffffffffffffffffffffffffff82169050919050565b6000819050919050565b6000610fce82610fb9565b91507fffffffffffffffffffffffffffffffffffffffffffffffffffffffffffffffff8214156110015761100061100c565b5b600182019050919050565b7f4e487b7100000000000000000000000000000000000000000000000000000000600052601160045260246000fd5b7f4e487b7100000000000000000000000000000000000000000000000000000000600052601260045260246000fd5b61107381610f7b565b811461107e57600080fd5b50565b61108a81610fb9565b811461109557600080fd5b5056fea2646970667358221220f3f42c07faf0bc7d039ca00804028d8dd15513ffc4741279833a547ece60f6ae64736f6c63430008000033",
  "linkReferences": {},
  "deployedLinkReferences": {}
}