{
  "_format": "hh-sol-artifact-1",
  "contractName": "RideDapp",
  "sourceName": "contracts/RideDapp.sol",
  "abi": [
    {
      "anonymous": false,
      "inputs": [
        {
          "indexed": true,
          "internalType": "address",
          "name": "previousOwner",
          "type": "address"
        },
        {
          "indexed": true,
          "internalType": "address",
          "name": "newOwner",
          "type": "address"
        }
      ],
      "name": "OwnershipTransferred",
      "type": "event"
    },
    {
      "anonymous": false,
      "inputs": [
        {
          "indexed": false,
          "internalType": "address",
          "name": "from",
          "type": "address"
        },
        {
          "indexed": false,
          "internalType": "address",
          "name": "receiver",
          "type": "address"
        },
        {
          "indexed": false,
          "internalType": "uint256",
          "name": "amount",
          "type": "uint256"
        }
      ],
      "name": "Transfer",
      "type": "event"
    },
    {
      "inputs": [
        {
          "internalType": "uint256",
          "name": "_requestId",
          "type": "uint256"
        },
        {
          "internalType": "string",
          "name": "_riderId",
          "type": "string"
        },
        {
          "internalType": "address",
          "name": "_riderWallet",
          "type": "address"
        }
      ],
      "name": "acceptRide",
      "outputs": [],
      "stateMutability": "nonpayable",
      "type": "function"
    },
    {
      "inputs": [],
      "name": "addDriver",
      "outputs": [],
      "stateMutability": "nonpayable",
      "type": "function"
    },
    {
      "inputs": [
        {
          "internalType": "string",
          "name": "_riderId",
          "type": "string"
        }
      ],
      "name": "addRequest",
      "outputs": [
        {
          "internalType": "uint256",
          "name": "",
          "type": "uint256"
        }
      ],
      "stateMutability": "payable",
      "type": "function"
    },
    {
      "inputs": [],
      "name": "addRider",
      "outputs": [],
      "stateMutability": "nonpayable",
      "type": "function"
    },
    {
      "inputs": [],
      "name": "checkDriver",
      "outputs": [
        {
          "internalType": "bool",
          "name": "",
          "type": "bool"
        }
      ],
      "stateMutability": "view",
      "type": "function"
    },
    {
      "inputs": [],
      "name": "checkRider",
      "outputs": [
        {
          "internalType": "bool",
          "name": "",
          "type": "bool"
        }
      ],
      "stateMutability": "view",
      "type": "function"
    },
    {
      "inputs": [],
      "name": "driverCount",
      "outputs": [
        {
          "internalType": "uint256",
          "name": "",
          "type": "uint256"
        }
      ],
      "stateMutability": "view",
      "type": "function"
    },
    {
      "inputs": [
        {
          "internalType": "address",
          "name": "",
          "type": "address"
        }
      ],
      "name": "driverMapping",
      "outputs": [
        {
          "internalType": "uint256",
          "name": "",
          "type": "uint256"
        }
      ],
      "stateMutability": "view",
      "type": "function"
    },
    {
      "inputs": [],
      "name": "owner",
      "outputs": [
        {
          "internalType": "address",
          "name": "",
          "type": "address"
        }
      ],
      "stateMutability": "view",
      "type": "function"
    },
    {
      "inputs": [],
      "name": "renounceOwnership",
      "outputs": [],
      "stateMutability": "nonpayable",
      "type": "function"
    },
    {
      "inputs": [],
      "name": "requestCount",
      "outputs": [
        {
          "internalType": "uint256",
          "name": "",
          "type": "uint256"
        }
      ],
      "stateMutability": "view",
      "type": "function"
    },
    {
      "inputs": [
        {
          "internalType": "uint256",
          "name": "",
          "type": "uint256"
        }
      ],
      "name": "requestData",
      "outputs": [
        {
          "internalType": "address",
          "name": "requesterAddress",
          "type": "address"
        },
        {
          "internalType": "uint256",
          "name": "timestamp",
          "type": "uint256"
        },
        {
          "internalType": "uint256",
          "name": "cost",
          "type": "uint256"
        }
      ],
      "stateMutability": "view",
      "type": "function"
    },
    {
      "inputs": [],
      "name": "riderCount",
      "outputs": [
        {
          "internalType": "uint256",
          "name": "",
          "type": "uint256"
        }
      ],
      "stateMutability": "view",
      "type": "function"
    },
    {
      "inputs": [
        {
          "internalType": "address",
          "name": "",
          "type": "address"
        }
      ],
      "name": "riderMapping",
      "outputs": [
        {
          "internalType": "uint256",
          "name": "",
          "type": "uint256"
        }
      ],
      "stateMutability": "view",
      "type": "function"
    },
    {
      "inputs": [
        {
          "internalType": "address",
          "name": "newOwner",
          "type": "address"
        }
      ],
      "name": "transferOwnership",
      "outputs": [],
      "stateMutability": "nonpayable",
      "type": "function"
    }
  ],
  "bytecode": "0x608060405234801561001057600080fd5b5061002d61002261003260201b60201c565b61003a60201b60201c565b6100fe565b600033905090565b60008060009054906101000a900473ffffffffffffffffffffffffffffffffffffffff169050816000806101000a81548173ffffffffffffffffffffffffffffffffffffffff021916908373ffffffffffffffffffffffffffffffffffffffff1602179055508173ffffffffffffffffffffffffffffffffffffffff168173ffffffffffffffffffffffffffffffffffffffff167f8be0079c531659141344cd1fd0a4f28419497f9722a3daafe3b4186f6b6457e060405160405180910390a35050565b61133b8061010d6000396000f3fe6080604052600436106100e85760003560e01c80635badbe4c1161008a578063a43f411111610059578063a43f4111146102c5578063d1bba998146102f0578063f2fde38b1461031b578063f359d66d14610344576100e8565b80635badbe4c1461022f578063715018a61461025a5780638da5cb5b14610271578063a3c684d71461029c576100e8565b80632e7e34c9116100c65780632e7e34c914610199578063367412fa146101c457806346990b69146101db57806358a4757c146101f2576100e8565b80630d6399ca146100ed578063128d72151461012a5780632adb9e3c1461015a575b600080fd5b3480156100f957600080fd5b50610114600480360381019061010f9190610cf4565b61036f565b60405161012191906110ad565b60405180910390f35b610144600480360381019061013f9190610d1d565b610387565b60405161015191906110ad565b60405180910390f35b34801561016657600080fd5b50610181600480360381019061017c9190610d5e565b610508565b60405161019093929190610fdb565b60405180910390f35b3480156101a557600080fd5b506101ae610552565b6040516101bb9190611012565b60405180910390f35b3480156101d057600080fd5b506101d96105ac565b005b3480156101e757600080fd5b506101f061060c565b005b3480156101fe57600080fd5b5061021960048036038101906102149190610cf4565b61066c565b60405161022691906110ad565b60405180910390f35b34801561023b57600080fd5b50610244610684565b60405161025191906110ad565b60405180910390f35b34801561026657600080fd5b5061026f61068a565b005b34801561027d57600080fd5b50610286610712565b6040516102939190610f89565b60405180910390f35b3480156102a857600080fd5b506102c360048036038101906102be9190610d87565b61073b565b005b3480156102d157600080fd5b506102da610a38565b6040516102e791906110ad565b60405180910390f35b3480156102fc57600080fd5b50610305610a3e565b6040516103129190611012565b60405180910390f35b34801561032757600080fd5b50610342600480360381019061033d9190610cf4565b610a98565b005b34801561035057600080fd5b50610359610b90565b60405161036691906110ad565b60405180910390f35b60026020528060005260406000206000915090505481565b6000610391610a3e565b6103d0576040517f08c379a00000000000000000000000000000000000000000000000000000000081526004016103c79061102d565b60405180910390fd5b600860008154809291906103e390611230565b9190505550346004836040516103f99190610f72565b908152602001604051809103902060003373ffffffffffffffffffffffffffffffffffffffff1673ffffffffffffffffffffffffffffffffffffffff16815260200190815260200160002060008282546104539190611150565b9250508190555060405180606001604052803373ffffffffffffffffffffffffffffffffffffffff1681526020014281526020013481525060096000600854815260200190815260200160002060008201518160000160006101000a81548173ffffffffffffffffffffffffffffffffffffffff021916908373ffffffffffffffffffffffffffffffffffffffff16021790555060208201518160010155604082015181600201559050506008549050919050565b60096020528060005260406000206000915090508060000160009054906101000a900473ffffffffffffffffffffffffffffffffffffffff16908060010154908060020154905083565b600080600260003373ffffffffffffffffffffffffffffffffffffffff1673ffffffffffffffffffffffffffffffffffffffff1681526020019081526020016000205411156105a457600190506105a9565b600090505b90565b600660008154809291906105bf90611230565b9190505550600654600360003373ffffffffffffffffffffffffffffffffffffffff1673ffffffffffffffffffffffffffffffffffffffff16815260200190815260200160002081905550565b6005600081548092919061061f90611230565b9190505550600554600260003373ffffffffffffffffffffffffffffffffffffffff1673ffffffffffffffffffffffffffffffffffffffff16815260200190815260200160002081905550565b60036020528060005260406000206000915090505481565b60085481565b610692610b96565b73ffffffffffffffffffffffffffffffffffffffff166106b0610712565b73ffffffffffffffffffffffffffffffffffffffff1614610706576040517f08c379a00000000000000000000000000000000000000000000000000000000081526004016106fd9061108d565b60405180910390fd5b6107106000610b9e565b565b60008060009054906101000a900473ffffffffffffffffffffffffffffffffffffffff16905090565b610743610552565b610782576040517f08c379a00000000000000000000000000000000000000000000000000000000081526004016107799061106d565b60405180910390fd5b60006004836040516107949190610f72565b908152602001604051809103902060008373ffffffffffffffffffffffffffffffffffffffff1673ffffffffffffffffffffffffffffffffffffffff1681526020019081526020016000205490503373ffffffffffffffffffffffffffffffffffffffff166108fc829081150290604051600060405180830381858888f19350505050158015610828573d6000803e3d6000fd5b5060016007600082825461083c9190611150565b92505081905550600160405180608001604052806009600088815260200190815260200160002060000160009054906101000a900473ffffffffffffffffffffffffffffffffffffffff1673ffffffffffffffffffffffffffffffffffffffff1681526020013373ffffffffffffffffffffffffffffffffffffffff1681526020014281526020016009600088815260200190815260200160002060020154815250908060018154018082558091505060019003906000526020600020906004020160009091909190915060008201518160000160006101000a81548173ffffffffffffffffffffffffffffffffffffffff021916908373ffffffffffffffffffffffffffffffffffffffff16021790555060208201518160010160006101000a81548173ffffffffffffffffffffffffffffffffffffffff021916908373ffffffffffffffffffffffffffffffffffffffff160217905550604082015181600201556060820151816003015550507fddf252ad1be2c89b69c2b068fc378daa952ba7f163c4a11628f55a4df523b3ef6009600086815260200190815260200160002060000160009054906101000a900473ffffffffffffffffffffffffffffffffffffffff16336009600088815260200190815260200160002060020154604051610a2a93929190610fa4565b60405180910390a150505050565b60065481565b600080600360003373ffffffffffffffffffffffffffffffffffffffff1673ffffffffffffffffffffffffffffffffffffffff168152602001908152602001600020541115610a905760019050610a95565b600090505b90565b610aa0610b96565b73ffffffffffffffffffffffffffffffffffffffff16610abe610712565b73ffffffffffffffffffffffffffffffffffffffff1614610b14576040517f08c379a0000000000000000000000000000000000000000000000000000000008152600401610b0b9061108d565b60405180910390fd5b600073ffffffffffffffffffffffffffffffffffffffff168173ffffffffffffffffffffffffffffffffffffffff161415610b84576040517f08c379a0000000000000000000000000000000000000000000000000000000008152600401610b7b9061104d565b60405180910390fd5b610b8d81610b9e565b50565b60055481565b600033905090565b60008060009054906101000a900473ffffffffffffffffffffffffffffffffffffffff169050816000806101000a81548173ffffffffffffffffffffffffffffffffffffffff021916908373ffffffffffffffffffffffffffffffffffffffff1602179055508173ffffffffffffffffffffffffffffffffffffffff168173ffffffffffffffffffffffffffffffffffffffff167f8be0079c531659141344cd1fd0a4f28419497f9722a3daafe3b4186f6b6457e060405160405180910390a35050565b6000610c75610c70846110f9565b6110c8565b905082815260208101848484011115610c8d57600080fd5b610c988482856111ee565b509392505050565b600081359050610caf816112d7565b92915050565b600082601f830112610cc657600080fd5b8135610cd6848260208601610c62565b91505092915050565b600081359050610cee816112ee565b92915050565b600060208284031215610d0657600080fd5b6000610d1484828501610ca0565b91505092915050565b600060208284031215610d2f57600080fd5b600082013567ffffffffffffffff811115610d4957600080fd5b610d5584828501610cb5565b91505092915050565b600060208284031215610d7057600080fd5b6000610d7e84828501610cdf565b91505092915050565b600080600060608486031215610d9c57600080fd5b6000610daa86828701610cdf565b935050602084013567ffffffffffffffff811115610dc757600080fd5b610dd386828701610cb5565b9250506040610de486828701610ca0565b9150509250925092565b610df7816111a6565b82525050565b610e06816111b8565b82525050565b6000610e1782611129565b610e218185611145565b9350610e318185602086016111fd565b80840191505092915050565b6000610e4a601183611134565b91507f6e6f7420612076616c69642072696465720000000000000000000000000000006000830152602082019050919050565b6000610e8a602683611134565b91507f4f776e61626c653a206e6577206f776e657220697320746865207a65726f206160008301527f64647265737300000000000000000000000000000000000000000000000000006020830152604082019050919050565b6000610ef0601283611134565b91507f6e6f7420612076616c69642064726976657200000000000000000000000000006000830152602082019050919050565b6000610f30602083611134565b91507f4f776e61626c653a2063616c6c6572206973206e6f7420746865206f776e65726000830152602082019050919050565b610f6c816111e4565b82525050565b6000610f7e8284610e0c565b915081905092915050565b6000602082019050610f9e6000830184610dee565b92915050565b6000606082019050610fb96000830186610dee565b610fc66020830185610dee565b610fd36040830184610f63565b949350505050565b6000606082019050610ff06000830186610dee565b610ffd6020830185610f63565b61100a6040830184610f63565b949350505050565b60006020820190506110276000830184610dfd565b92915050565b6000602082019050818103600083015261104681610e3d565b9050919050565b6000602082019050818103600083015261106681610e7d565b9050919050565b6000602082019050818103600083015261108681610ee3565b9050919050565b600060208201905081810360008301526110a681610f23565b9050919050565b60006020820190506110c26000830184610f63565b92915050565b6000604051905081810181811067ffffffffffffffff821117156110ef576110ee6112a8565b5b8060405250919050565b600067ffffffffffffffff821115611114576111136112a8565b5b601f19601f8301169050602081019050919050565b600081519050919050565b600082825260208201905092915050565b600081905092915050565b600061115b826111e4565b9150611166836111e4565b9250827fffffffffffffffffffffffffffffffffffffffffffffffffffffffffffffffff0382111561119b5761119a611279565b5b828201905092915050565b60006111b1826111c4565b9050919050565b60008115159050919050565b600073ffffffffffffffffffffffffffffffffffffffff82169050919050565b6000819050919050565b82818337600083830152505050565b60005b8381101561121b578082015181840152602081019050611200565b8381111561122a576000848401525b50505050565b600061123b826111e4565b91507fffffffffffffffffffffffffffffffffffffffffffffffffffffffffffffffff82141561126e5761126d611279565b5b600182019050919050565b7f4e487b7100000000000000000000000000000000000000000000000000000000600052601160045260246000fd5b7f4e487b7100000000000000000000000000000000000000000000000000000000600052604160045260246000fd5b6112e0816111a6565b81146112eb57600080fd5b50565b6112f7816111e4565b811461130257600080fd5b5056fea2646970667358221220d909190e2b976341f240c4afef67593284efef34e2c92ad4d4e243565f4c88b564736f6c63430008000033",
  "linkReferences": {},
  "deployedLinkReferences": {}
}