{
  "_format": "hh-sol-artifact-1",
  "contractName": "RideDapp",
  "sourceName": "contracts/RideDapp.sol",
  "abi": [
    {
      "anonymous": false,
      "inputs": [
        {
          "indexed": true,
          "internalType": "address",
          "name": "previousOwner",
          "type": "address"
        },
        {
          "indexed": true,
          "internalType": "address",
          "name": "newOwner",
          "type": "address"
        }
      ],
      "name": "OwnershipTransferred",
      "type": "event"
    },
    {
      "anonymous": false,
      "inputs": [
        {
          "indexed": false,
          "internalType": "address",
          "name": "from",
          "type": "address"
        },
        {
          "indexed": false,
          "internalType": "address",
          "name": "receiver",
          "type": "address"
        },
        {
          "indexed": false,
          "internalType": "uint256",
          "name": "amount",
          "type": "uint256"
        }
      ],
      "name": "Transfer",
      "type": "event"
    },
    {
      "inputs": [
        {
          "internalType": "uint256",
          "name": "_requestId",
          "type": "uint256"
        }
      ],
      "name": "acceptRide",
      "outputs": [],
      "stateMutability": "nonpayable",
      "type": "function"
    },
    {
      "inputs": [],
      "name": "addDriver",
      "outputs": [],
      "stateMutability": "nonpayable",
      "type": "function"
    },
    {
      "inputs": [
        {
          "internalType": "uint256",
          "name": "_distance",
          "type": "uint256"
        },
        {
          "internalType": "uint256",
          "name": "_rideTime",
          "type": "uint256"
        }
      ],
      "name": "addRequest",
      "outputs": [],
      "stateMutability": "nonpayable",
      "type": "function"
    },
    {
      "inputs": [],
      "name": "addRider",
      "outputs": [],
      "stateMutability": "nonpayable",
      "type": "function"
    },
    {
      "inputs": [
        {
          "internalType": "uint256",
          "name": "_distance",
          "type": "uint256"
        },
        {
          "internalType": "uint256",
          "name": "_rideTime",
          "type": "uint256"
        }
      ],
      "name": "calcCost",
      "outputs": [
        {
          "internalType": "uint256",
          "name": "",
          "type": "uint256"
        }
      ],
      "stateMutability": "pure",
      "type": "function"
    },
    {
      "inputs": [],
      "name": "checkDriver",
      "outputs": [
        {
          "internalType": "bool",
          "name": "",
          "type": "bool"
        }
      ],
      "stateMutability": "view",
      "type": "function"
    },
    {
      "inputs": [],
      "name": "checkRider",
      "outputs": [
        {
          "internalType": "bool",
          "name": "",
          "type": "bool"
        }
      ],
      "stateMutability": "view",
      "type": "function"
    },
    {
      "inputs": [],
      "name": "driverCount",
      "outputs": [
        {
          "internalType": "uint256",
          "name": "",
          "type": "uint256"
        }
      ],
      "stateMutability": "view",
      "type": "function"
    },
    {
      "inputs": [
        {
          "internalType": "address",
          "name": "",
          "type": "address"
        }
      ],
      "name": "driverMapping",
      "outputs": [
        {
          "internalType": "uint256",
          "name": "",
          "type": "uint256"
        }
      ],
      "stateMutability": "view",
      "type": "function"
    },
    {
      "inputs": [],
      "name": "owner",
      "outputs": [
        {
          "internalType": "address",
          "name": "",
          "type": "address"
        }
      ],
      "stateMutability": "view",
      "type": "function"
    },
    {
      "inputs": [],
      "name": "renounceOwnership",
      "outputs": [],
      "stateMutability": "nonpayable",
      "type": "function"
    },
    {
      "inputs": [],
      "name": "requestCount",
      "outputs": [
        {
          "internalType": "uint256",
          "name": "",
          "type": "uint256"
        }
      ],
      "stateMutability": "view",
      "type": "function"
    },
    {
      "inputs": [
        {
          "internalType": "uint256",
          "name": "",
          "type": "uint256"
        }
      ],
      "name": "requestData",
      "outputs": [
        {
          "internalType": "address",
          "name": "requesterAddress",
          "type": "address"
        },
        {
          "internalType": "uint256",
          "name": "timestamp",
          "type": "uint256"
        },
        {
          "internalType": "uint256",
          "name": "cost",
          "type": "uint256"
        }
      ],
      "stateMutability": "view",
      "type": "function"
    },
    {
      "inputs": [],
      "name": "riderCount",
      "outputs": [
        {
          "internalType": "uint256",
          "name": "",
          "type": "uint256"
        }
      ],
      "stateMutability": "view",
      "type": "function"
    },
    {
      "inputs": [
        {
          "internalType": "address",
          "name": "",
          "type": "address"
        }
      ],
      "name": "riderMapping",
      "outputs": [
        {
          "internalType": "uint256",
          "name": "",
          "type": "uint256"
        }
      ],
      "stateMutability": "view",
      "type": "function"
    },
    {
      "inputs": [
        {
          "internalType": "address",
          "name": "newOwner",
          "type": "address"
        }
      ],
      "name": "transferOwnership",
      "outputs": [],
      "stateMutability": "nonpayable",
      "type": "function"
    }
  ],
  "bytecode": "0x608060405234801561001057600080fd5b5061002d61002261003260201b60201c565b61003a60201b60201c565b6100fe565b600033905090565b60008060009054906101000a900473ffffffffffffffffffffffffffffffffffffffff169050816000806101000a81548173ffffffffffffffffffffffffffffffffffffffff021916908373ffffffffffffffffffffffffffffffffffffffff1602179055508173ffffffffffffffffffffffffffffffffffffffff168173ffffffffffffffffffffffffffffffffffffffff167f8be0079c531659141344cd1fd0a4f28419497f9722a3daafe3b4186f6b6457e060405160405180910390a35050565b6110af8061010d6000396000f3fe608060405234801561001057600080fd5b50600436106101005760003560e01c8063715018a611610097578063c51562cb11610066578063c51562cb14610279578063d1bba99814610295578063f2fde38b146102b3578063f359d66d146102cf57610100565b8063715018a6146102035780638da5cb5b1461020d578063a43f41111461022b578063a5a13ddc1461024957610100565b8063367412fa116100d3578063367412fa146101a157806346990b69146101ab57806358a4757c146101b55780635badbe4c146101e557610100565b80630d6399ca14610105578063100e72ad146101355780632adb9e3c146101515780632e7e34c914610183575b600080fd5b61011f600480360381019061011a9190610b4a565b6102ed565b60405161012c9190610e4f565b60405180910390f35b61014f600480360381019061014a9190610b9c565b610305565b005b61016b60048036038101906101669190610b73565b61041b565b60405161017a93929190610d7d565b60405180910390f35b61018b610465565b6040516101989190610db4565b60405180910390f35b6101a96104bf565b005b6101b361051f565b005b6101cf60048036038101906101ca9190610b4a565b61057f565b6040516101dc9190610e4f565b60405180910390f35b6101ed610597565b6040516101fa9190610e4f565b60405180910390f35b61020b61059d565b005b610215610625565b6040516102229190610d2b565b60405180910390f35b61023361064e565b6040516102409190610e4f565b60405180910390f35b610263600480360381019061025e9190610b9c565b610654565b6040516102709190610e4f565b60405180910390f35b610293600480360381019061028e9190610b73565b6106a9565b005b61029d6108fc565b6040516102aa9190610db4565b60405180910390f35b6102cd60048036038101906102c89190610b4a565b610956565b005b6102d7610a4e565b6040516102e49190610e4f565b60405180910390f35b60026020528060005260406000206000915090505481565b61030d6108fc565b61034c576040517f08c379a000000000000000000000000000000000000000000000000000000000815260040161034390610dcf565b60405180910390fd5b6007600081548092919061035f90610fa4565b919050555060006103708383610654565b905060405180606001604052803373ffffffffffffffffffffffffffffffffffffffff1681526020014281526020018281525060086000600754815260200190815260200160002060008201518160000160006101000a81548173ffffffffffffffffffffffffffffffffffffffff021916908373ffffffffffffffffffffffffffffffffffffffff1602179055506020820151816001015560408201518160020155905050505050565b60086020528060005260406000206000915090508060000160009054906101000a900473ffffffffffffffffffffffffffffffffffffffff16908060010154908060020154905083565b600080600260003373ffffffffffffffffffffffffffffffffffffffff1673ffffffffffffffffffffffffffffffffffffffff1681526020019081526020016000205411156104b757600190506104bc565b600090505b90565b600560008154809291906104d290610fa4565b9190505550600554600360003373ffffffffffffffffffffffffffffffffffffffff1673ffffffffffffffffffffffffffffffffffffffff16815260200190815260200160002081905550565b6004600081548092919061053290610fa4565b9190505550600454600260003373ffffffffffffffffffffffffffffffffffffffff1673ffffffffffffffffffffffffffffffffffffffff16815260200190815260200160002081905550565b60036020528060005260406000206000915090505481565b60075481565b6105a5610a54565b73ffffffffffffffffffffffffffffffffffffffff166105c3610625565b73ffffffffffffffffffffffffffffffffffffffff1614610619576040517f08c379a000000000000000000000000000000000000000000000000000000000815260040161061090610e2f565b60405180910390fd5b6106236000610a5c565b565b60008060009054906101000a900473ffffffffffffffffffffffffffffffffffffffff16905090565b60055481565b6000806608b313baabfb2490506000600384866106719190610e7b565b858761067d9190610f02565b6106879190610ed1565b836106929190610f02565b61069c9190610ed1565b9050809250505092915050565b6106b1610465565b6106f0576040517f08c379a00000000000000000000000000000000000000000000000000000000081526004016106e790610e0f565b60405180910390fd5b6001600660008282546107039190610e7b565b92505081905550600160405180608001604052806008600085815260200190815260200160002060000160009054906101000a900473ffffffffffffffffffffffffffffffffffffffff1673ffffffffffffffffffffffffffffffffffffffff1681526020013373ffffffffffffffffffffffffffffffffffffffff1681526020014281526020016008600085815260200190815260200160002060020154815250908060018154018082558091505060019003906000526020600020906004020160009091909190915060008201518160000160006101000a81548173ffffffffffffffffffffffffffffffffffffffff021916908373ffffffffffffffffffffffffffffffffffffffff16021790555060208201518160010160006101000a81548173ffffffffffffffffffffffffffffffffffffffff021916908373ffffffffffffffffffffffffffffffffffffffff160217905550604082015181600201556060820151816003015550507fddf252ad1be2c89b69c2b068fc378daa952ba7f163c4a11628f55a4df523b3ef6008600083815260200190815260200160002060000160009054906101000a900473ffffffffffffffffffffffffffffffffffffffff163360086000858152602001908152602001600020600201546040516108f193929190610d46565b60405180910390a150565b600080600360003373ffffffffffffffffffffffffffffffffffffffff1673ffffffffffffffffffffffffffffffffffffffff16815260200190815260200160002054111561094e5760019050610953565b600090505b90565b61095e610a54565b73ffffffffffffffffffffffffffffffffffffffff1661097c610625565b73ffffffffffffffffffffffffffffffffffffffff16146109d2576040517f08c379a00000000000000000000000000000000000000000000000000000000081526004016109c990610e2f565b60405180910390fd5b600073ffffffffffffffffffffffffffffffffffffffff168173ffffffffffffffffffffffffffffffffffffffff161415610a42576040517f08c379a0000000000000000000000000000000000000000000000000000000008152600401610a3990610def565b60405180910390fd5b610a4b81610a5c565b50565b60045481565b600033905090565b60008060009054906101000a900473ffffffffffffffffffffffffffffffffffffffff169050816000806101000a81548173ffffffffffffffffffffffffffffffffffffffff021916908373ffffffffffffffffffffffffffffffffffffffff1602179055508173ffffffffffffffffffffffffffffffffffffffff168173ffffffffffffffffffffffffffffffffffffffff167f8be0079c531659141344cd1fd0a4f28419497f9722a3daafe3b4186f6b6457e060405160405180910390a35050565b600081359050610b2f8161104b565b92915050565b600081359050610b4481611062565b92915050565b600060208284031215610b5c57600080fd5b6000610b6a84828501610b20565b91505092915050565b600060208284031215610b8557600080fd5b6000610b9384828501610b35565b91505092915050565b60008060408385031215610baf57600080fd5b6000610bbd85828601610b35565b9250506020610bce85828601610b35565b9150509250929050565b610be181610f5c565b82525050565b610bf081610f6e565b82525050565b6000610c03601183610e6a565b91507f6e6f7420612076616c69642072696465720000000000000000000000000000006000830152602082019050919050565b6000610c43602683610e6a565b91507f4f776e61626c653a206e6577206f776e657220697320746865207a65726f206160008301527f64647265737300000000000000000000000000000000000000000000000000006020830152604082019050919050565b6000610ca9601283610e6a565b91507f6e6f7420612076616c69642064726976657200000000000000000000000000006000830152602082019050919050565b6000610ce9602083610e6a565b91507f4f776e61626c653a2063616c6c6572206973206e6f7420746865206f776e65726000830152602082019050919050565b610d2581610f9a565b82525050565b6000602082019050610d406000830184610bd8565b92915050565b6000606082019050610d5b6000830186610bd8565b610d686020830185610bd8565b610d756040830184610d1c565b949350505050565b6000606082019050610d926000830186610bd8565b610d9f6020830185610d1c565b610dac6040830184610d1c565b949350505050565b6000602082019050610dc96000830184610be7565b92915050565b60006020820190508181036000830152610de881610bf6565b9050919050565b60006020820190508181036000830152610e0881610c36565b9050919050565b60006020820190508181036000830152610e2881610c9c565b9050919050565b60006020820190508181036000830152610e4881610cdc565b9050919050565b6000602082019050610e646000830184610d1c565b92915050565b600082825260208201905092915050565b6000610e8682610f9a565b9150610e9183610f9a565b9250827fffffffffffffffffffffffffffffffffffffffffffffffffffffffffffffffff03821115610ec657610ec5610fed565b5b828201905092915050565b6000610edc82610f9a565b9150610ee783610f9a565b925082610ef757610ef661101c565b5b828204905092915050565b6000610f0d82610f9a565b9150610f1883610f9a565b9250817fffffffffffffffffffffffffffffffffffffffffffffffffffffffffffffffff0483118215151615610f5157610f50610fed565b5b828202905092915050565b6000610f6782610f7a565b9050919050565b60008115159050919050565b600073ffffffffffffffffffffffffffffffffffffffff82169050919050565b6000819050919050565b6000610faf82610f9a565b91507fffffffffffffffffffffffffffffffffffffffffffffffffffffffffffffffff821415610fe257610fe1610fed565b5b600182019050919050565b7f4e487b7100000000000000000000000000000000000000000000000000000000600052601160045260246000fd5b7f4e487b7100000000000000000000000000000000000000000000000000000000600052601260045260246000fd5b61105481610f5c565b811461105f57600080fd5b50565b61106b81610f9a565b811461107657600080fd5b5056fea26469706673582212205e4bcf8095b16975a97c4d63f31238da01b4791a2dc9174ece917a387622967564736f6c63430008000033",
  "linkReferences": {},
  "deployedLinkReferences": {}
}