{
  "_format": "hh-sol-artifact-1",
  "contractName": "RideDapp",
  "sourceName": "contracts/RideDapp.sol",
  "abi": [
    {
      "anonymous": false,
      "inputs": [
        {
          "indexed": true,
          "internalType": "address",
          "name": "previousOwner",
          "type": "address"
        },
        {
          "indexed": true,
          "internalType": "address",
          "name": "newOwner",
          "type": "address"
        }
      ],
      "name": "OwnershipTransferred",
      "type": "event"
    },
    {
      "anonymous": false,
      "inputs": [
        {
          "indexed": false,
          "internalType": "address",
          "name": "from",
          "type": "address"
        },
        {
          "indexed": false,
          "internalType": "address",
          "name": "receiver",
          "type": "address"
        },
        {
          "indexed": false,
          "internalType": "uint256",
          "name": "amount",
          "type": "uint256"
        }
      ],
      "name": "Transfer",
      "type": "event"
    },
    {
      "inputs": [
        {
          "internalType": "uint256",
          "name": "_requestId",
          "type": "uint256"
        },
        {
          "internalType": "string",
          "name": "_riderId",
          "type": "string"
        },
        {
          "internalType": "address",
          "name": "_riderWallet",
          "type": "address"
        }
      ],
      "name": "acceptRide",
      "outputs": [],
      "stateMutability": "nonpayable",
      "type": "function"
    },
    {
      "inputs": [],
      "name": "addDriver",
      "outputs": [],
      "stateMutability": "nonpayable",
      "type": "function"
    },
    {
      "inputs": [
        {
          "internalType": "uint256",
          "name": "_distance",
          "type": "uint256"
        },
        {
          "internalType": "uint256",
          "name": "_rideTime",
          "type": "uint256"
        },
        {
          "internalType": "string",
          "name": "_riderId",
          "type": "string"
        }
      ],
      "name": "addRequest",
      "outputs": [],
      "stateMutability": "payable",
      "type": "function"
    },
    {
      "inputs": [],
      "name": "addRider",
      "outputs": [],
      "stateMutability": "nonpayable",
      "type": "function"
    },
    {
      "inputs": [
        {
          "internalType": "uint256",
          "name": "_distance",
          "type": "uint256"
        },
        {
          "internalType": "uint256",
          "name": "_duration",
          "type": "uint256"
        }
      ],
      "name": "calcCost",
      "outputs": [
        {
          "internalType": "uint256",
          "name": "",
          "type": "uint256"
        }
      ],
      "stateMutability": "pure",
      "type": "function"
    },
    {
      "inputs": [],
      "name": "checkDriver",
      "outputs": [
        {
          "internalType": "bool",
          "name": "",
          "type": "bool"
        }
      ],
      "stateMutability": "view",
      "type": "function"
    },
    {
      "inputs": [],
      "name": "checkRider",
      "outputs": [
        {
          "internalType": "bool",
          "name": "",
          "type": "bool"
        }
      ],
      "stateMutability": "view",
      "type": "function"
    },
    {
      "inputs": [],
      "name": "driverCount",
      "outputs": [
        {
          "internalType": "uint256",
          "name": "",
          "type": "uint256"
        }
      ],
      "stateMutability": "view",
      "type": "function"
    },
    {
      "inputs": [
        {
          "internalType": "address",
          "name": "",
          "type": "address"
        }
      ],
      "name": "driverMapping",
      "outputs": [
        {
          "internalType": "uint256",
          "name": "",
          "type": "uint256"
        }
      ],
      "stateMutability": "view",
      "type": "function"
    },
    {
      "inputs": [],
      "name": "owner",
      "outputs": [
        {
          "internalType": "address",
          "name": "",
          "type": "address"
        }
      ],
      "stateMutability": "view",
      "type": "function"
    },
    {
      "inputs": [],
      "name": "renounceOwnership",
      "outputs": [],
      "stateMutability": "nonpayable",
      "type": "function"
    },
    {
      "inputs": [],
      "name": "requestCount",
      "outputs": [
        {
          "internalType": "uint256",
          "name": "",
          "type": "uint256"
        }
      ],
      "stateMutability": "view",
      "type": "function"
    },
    {
      "inputs": [
        {
          "internalType": "uint256",
          "name": "",
          "type": "uint256"
        }
      ],
      "name": "requestData",
      "outputs": [
        {
          "internalType": "address",
          "name": "requesterAddress",
          "type": "address"
        },
        {
          "internalType": "uint256",
          "name": "timestamp",
          "type": "uint256"
        },
        {
          "internalType": "uint256",
          "name": "cost",
          "type": "uint256"
        }
      ],
      "stateMutability": "view",
      "type": "function"
    },
    {
      "inputs": [],
      "name": "riderCount",
      "outputs": [
        {
          "internalType": "uint256",
          "name": "",
          "type": "uint256"
        }
      ],
      "stateMutability": "view",
      "type": "function"
    },
    {
      "inputs": [
        {
          "internalType": "address",
          "name": "",
          "type": "address"
        }
      ],
      "name": "riderMapping",
      "outputs": [
        {
          "internalType": "uint256",
          "name": "",
          "type": "uint256"
        }
      ],
      "stateMutability": "view",
      "type": "function"
    },
    {
      "inputs": [
        {
          "internalType": "address",
          "name": "newOwner",
          "type": "address"
        }
      ],
      "name": "transferOwnership",
      "outputs": [],
      "stateMutability": "nonpayable",
      "type": "function"
    }
  ],
  "bytecode": "0x608060405234801561001057600080fd5b5061002d61002261003260201b60201c565b61003a60201b60201c565b6100fe565b600033905090565b60008060009054906101000a900473ffffffffffffffffffffffffffffffffffffffff169050816000806101000a81548173ffffffffffffffffffffffffffffffffffffffff021916908373ffffffffffffffffffffffffffffffffffffffff1602179055508173ffffffffffffffffffffffffffffffffffffffff168173ffffffffffffffffffffffffffffffffffffffff167f8be0079c531659141344cd1fd0a4f28419497f9722a3daafe3b4186f6b6457e060405160405180910390a35050565b6114ea8061010d6000396000f3fe6080604052600436106100f35760003560e01c8063715018a61161008a578063a5a13ddc11610059578063a5a13ddc146102e7578063d1bba99814610324578063f2fde38b1461034f578063f359d66d14610378576100f3565b8063715018a6146102515780638da5cb5b14610268578063a3c684d714610293578063a43f4111146102bc576100f3565b806339bdac80116100c657806339bdac80146101b657806346990b69146101d257806358a4757c146101e95780635badbe4c14610226576100f3565b80630d6399ca146100f85780632adb9e3c146101355780632e7e34c914610174578063367412fa1461019f575b600080fd5b34801561010457600080fd5b5061011f600480360381019061011a9190610d87565b6103a3565b60405161012c91906111a2565b60405180910390f35b34801561014157600080fd5b5061015c60048036038101906101579190610db0565b6103bb565b60405161016b939291906110d0565b60405180910390f35b34801561018057600080fd5b50610189610405565b6040516101969190611107565b60405180910390f35b3480156101ab57600080fd5b506101b461045f565b005b6101d060048036038101906101cb9190610e7c565b6104bf565b005b3480156101de57600080fd5b506101e7610648565b005b3480156101f557600080fd5b50610210600480360381019061020b9190610d87565b6106a8565b60405161021d91906111a2565b60405180910390f35b34801561023257600080fd5b5061023b6106c0565b60405161024891906111a2565b60405180910390f35b34801561025d57600080fd5b506102666106c6565b005b34801561027457600080fd5b5061027d61074e565b60405161028a919061107e565b60405180910390f35b34801561029f57600080fd5b506102ba60048036038101906102b59190610dd9565b610777565b005b3480156102c857600080fd5b506102d1610a74565b6040516102de91906111a2565b60405180910390f35b3480156102f357600080fd5b5061030e60048036038101906103099190610e40565b610a7a565b60405161031b91906111a2565b60405180910390f35b34801561033057600080fd5b50610339610ad1565b6040516103469190611107565b60405180910390f35b34801561035b57600080fd5b5061037660048036038101906103719190610d87565b610b2b565b005b34801561038457600080fd5b5061038d610c23565b60405161039a91906111a2565b60405180910390f35b60026020528060005260406000206000915090505481565b60096020528060005260406000206000915090508060000160009054906101000a900473ffffffffffffffffffffffffffffffffffffffff16908060010154908060020154905083565b600080600260003373ffffffffffffffffffffffffffffffffffffffff1673ffffffffffffffffffffffffffffffffffffffff168152602001908152602001600020541115610457576001905061045c565b600090505b90565b60066000815480929190610472906113b0565b9190505550600654600360003373ffffffffffffffffffffffffffffffffffffffff1673ffffffffffffffffffffffffffffffffffffffff16815260200190815260200160002081905550565b6104c7610ad1565b610506576040517f08c379a00000000000000000000000000000000000000000000000000000000081526004016104fd90611122565b60405180910390fd5b60086000815480929190610519906113b0565b9190505550600061052a8484610a7a565b90503460048360405161053d9190611067565b908152602001604051809103902060003373ffffffffffffffffffffffffffffffffffffffff1673ffffffffffffffffffffffffffffffffffffffff16815260200190815260200160002060008282546105979190611245565b9250508190555060405180606001604052803373ffffffffffffffffffffffffffffffffffffffff1681526020014281526020018281525060096000600854815260200190815260200160002060008201518160000160006101000a81548173ffffffffffffffffffffffffffffffffffffffff021916908373ffffffffffffffffffffffffffffffffffffffff160217905550602082015181600101556040820151816002015590505050505050565b6005600081548092919061065b906113b0565b9190505550600554600260003373ffffffffffffffffffffffffffffffffffffffff1673ffffffffffffffffffffffffffffffffffffffff16815260200190815260200160002081905550565b60036020528060005260406000206000915090505481565b60085481565b6106ce610c29565b73ffffffffffffffffffffffffffffffffffffffff166106ec61074e565b73ffffffffffffffffffffffffffffffffffffffff1614610742576040517f08c379a000000000000000000000000000000000000000000000000000000000815260040161073990611182565b60405180910390fd5b61074c6000610c31565b565b60008060009054906101000a900473ffffffffffffffffffffffffffffffffffffffff16905090565b61077f610405565b6107be576040517f08c379a00000000000000000000000000000000000000000000000000000000081526004016107b590611162565b60405180910390fd5b60006004836040516107d09190611067565b908152602001604051809103902060008373ffffffffffffffffffffffffffffffffffffffff1673ffffffffffffffffffffffffffffffffffffffff1681526020019081526020016000205490503373ffffffffffffffffffffffffffffffffffffffff166108fc829081150290604051600060405180830381858888f19350505050158015610864573d6000803e3d6000fd5b506001600760008282546108789190611245565b92505081905550600160405180608001604052806009600088815260200190815260200160002060000160009054906101000a900473ffffffffffffffffffffffffffffffffffffffff1673ffffffffffffffffffffffffffffffffffffffff1681526020013373ffffffffffffffffffffffffffffffffffffffff1681526020014281526020016009600088815260200190815260200160002060020154815250908060018154018082558091505060019003906000526020600020906004020160009091909190915060008201518160000160006101000a81548173ffffffffffffffffffffffffffffffffffffffff021916908373ffffffffffffffffffffffffffffffffffffffff16021790555060208201518160010160006101000a81548173ffffffffffffffffffffffffffffffffffffffff021916908373ffffffffffffffffffffffffffffffffffffffff160217905550604082015181600201556060820151816003015550507fddf252ad1be2c89b69c2b068fc378daa952ba7f163c4a11628f55a4df523b3ef6009600086815260200190815260200160002060000160009054906101000a900473ffffffffffffffffffffffffffffffffffffffff16336009600088815260200190815260200160002060020154604051610a6693929190611099565b60405180910390a150505050565b60065481565b6000806608b313baabfb24905060006064601985610a9891906112cc565b606087610aa591906112cc565b610aaf9190611245565b610ab9919061129b565b82610ac49190611245565b9050809250505092915050565b600080600360003373ffffffffffffffffffffffffffffffffffffffff1673ffffffffffffffffffffffffffffffffffffffff168152602001908152602001600020541115610b235760019050610b28565b600090505b90565b610b33610c29565b73ffffffffffffffffffffffffffffffffffffffff16610b5161074e565b73ffffffffffffffffffffffffffffffffffffffff1614610ba7576040517f08c379a0000000000000000000000000000000000000000000000000000000008152600401610b9e90611182565b60405180910390fd5b600073ffffffffffffffffffffffffffffffffffffffff168173ffffffffffffffffffffffffffffffffffffffff161415610c17576040517f08c379a0000000000000000000000000000000000000000000000000000000008152600401610c0e90611142565b60405180910390fd5b610c2081610c31565b50565b60055481565b600033905090565b60008060009054906101000a900473ffffffffffffffffffffffffffffffffffffffff169050816000806101000a81548173ffffffffffffffffffffffffffffffffffffffff021916908373ffffffffffffffffffffffffffffffffffffffff1602179055508173ffffffffffffffffffffffffffffffffffffffff168173ffffffffffffffffffffffffffffffffffffffff167f8be0079c531659141344cd1fd0a4f28419497f9722a3daafe3b4186f6b6457e060405160405180910390a35050565b6000610d08610d03846111ee565b6111bd565b905082815260208101848484011115610d2057600080fd5b610d2b84828561136e565b509392505050565b600081359050610d4281611486565b92915050565b600082601f830112610d5957600080fd5b8135610d69848260208601610cf5565b91505092915050565b600081359050610d818161149d565b92915050565b600060208284031215610d9957600080fd5b6000610da784828501610d33565b91505092915050565b600060208284031215610dc257600080fd5b6000610dd084828501610d72565b91505092915050565b600080600060608486031215610dee57600080fd5b6000610dfc86828701610d72565b935050602084013567ffffffffffffffff811115610e1957600080fd5b610e2586828701610d48565b9250506040610e3686828701610d33565b9150509250925092565b60008060408385031215610e5357600080fd5b6000610e6185828601610d72565b9250506020610e7285828601610d72565b9150509250929050565b600080600060608486031215610e9157600080fd5b6000610e9f86828701610d72565b9350506020610eb086828701610d72565b925050604084013567ffffffffffffffff811115610ecd57600080fd5b610ed986828701610d48565b9150509250925092565b610eec81611326565b82525050565b610efb81611338565b82525050565b6000610f0c8261121e565b610f16818561123a565b9350610f2681856020860161137d565b80840191505092915050565b6000610f3f601183611229565b91507f6e6f7420612076616c69642072696465720000000000000000000000000000006000830152602082019050919050565b6000610f7f602683611229565b91507f4f776e61626c653a206e6577206f776e657220697320746865207a65726f206160008301527f64647265737300000000000000000000000000000000000000000000000000006020830152604082019050919050565b6000610fe5601283611229565b91507f6e6f7420612076616c69642064726976657200000000000000000000000000006000830152602082019050919050565b6000611025602083611229565b91507f4f776e61626c653a2063616c6c6572206973206e6f7420746865206f776e65726000830152602082019050919050565b61106181611364565b82525050565b60006110738284610f01565b915081905092915050565b60006020820190506110936000830184610ee3565b92915050565b60006060820190506110ae6000830186610ee3565b6110bb6020830185610ee3565b6110c86040830184611058565b949350505050565b60006060820190506110e56000830186610ee3565b6110f26020830185611058565b6110ff6040830184611058565b949350505050565b600060208201905061111c6000830184610ef2565b92915050565b6000602082019050818103600083015261113b81610f32565b9050919050565b6000602082019050818103600083015261115b81610f72565b9050919050565b6000602082019050818103600083015261117b81610fd8565b9050919050565b6000602082019050818103600083015261119b81611018565b9050919050565b60006020820190506111b76000830184611058565b92915050565b6000604051905081810181811067ffffffffffffffff821117156111e4576111e3611457565b5b8060405250919050565b600067ffffffffffffffff82111561120957611208611457565b5b601f19601f8301169050602081019050919050565b600081519050919050565b600082825260208201905092915050565b600081905092915050565b600061125082611364565b915061125b83611364565b9250827fffffffffffffffffffffffffffffffffffffffffffffffffffffffffffffffff038211156112905761128f6113f9565b5b828201905092915050565b60006112a682611364565b91506112b183611364565b9250826112c1576112c0611428565b5b828204905092915050565b60006112d782611364565b91506112e283611364565b9250817fffffffffffffffffffffffffffffffffffffffffffffffffffffffffffffffff048311821515161561131b5761131a6113f9565b5b828202905092915050565b600061133182611344565b9050919050565b60008115159050919050565b600073ffffffffffffffffffffffffffffffffffffffff82169050919050565b6000819050919050565b82818337600083830152505050565b60005b8381101561139b578082015181840152602081019050611380565b838111156113aa576000848401525b50505050565b60006113bb82611364565b91507fffffffffffffffffffffffffffffffffffffffffffffffffffffffffffffffff8214156113ee576113ed6113f9565b5b600182019050919050565b7f4e487b7100000000000000000000000000000000000000000000000000000000600052601160045260246000fd5b7f4e487b7100000000000000000000000000000000000000000000000000000000600052601260045260246000fd5b7f4e487b7100000000000000000000000000000000000000000000000000000000600052604160045260246000fd5b61148f81611326565b811461149a57600080fd5b50565b6114a681611364565b81146114b157600080fd5b5056fea2646970667358221220f7f3a35981869bf663cfe40913559ddba8c290f880f47723a962c17ff6d878e464736f6c63430008000033",
  "linkReferences": {},
  "deployedLinkReferences": {}
}