{
  "_format": "hh-sol-artifact-1",
  "contractName": "RideDapp",
  "sourceName": "contracts/RideDapp.sol",
  "abi": [
    {
      "anonymous": false,
      "inputs": [
        {
          "indexed": true,
          "internalType": "address",
          "name": "previousOwner",
          "type": "address"
        },
        {
          "indexed": true,
          "internalType": "address",
          "name": "newOwner",
          "type": "address"
        }
      ],
      "name": "OwnershipTransferred",
      "type": "event"
    },
    {
      "anonymous": false,
      "inputs": [
        {
          "indexed": false,
          "internalType": "address",
          "name": "from",
          "type": "address"
        },
        {
          "indexed": false,
          "internalType": "address",
          "name": "receiver",
          "type": "address"
        },
        {
          "indexed": false,
          "internalType": "uint256",
          "name": "amount",
          "type": "uint256"
        }
      ],
      "name": "Transfer",
      "type": "event"
    },
    {
      "inputs": [
        {
          "internalType": "uint256",
          "name": "_requestId",
          "type": "uint256"
        },
        {
          "internalType": "string",
          "name": "_riderId",
          "type": "string"
        },
        {
          "internalType": "address",
          "name": "_riderWallet",
          "type": "address"
        }
      ],
      "name": "acceptRide",
      "outputs": [],
      "stateMutability": "nonpayable",
      "type": "function"
    },
    {
      "inputs": [],
      "name": "addDriver",
      "outputs": [],
      "stateMutability": "nonpayable",
      "type": "function"
    },
    {
      "inputs": [
        {
          "internalType": "uint256",
          "name": "_distance",
          "type": "uint256"
        },
        {
          "internalType": "uint256",
          "name": "_rideTime",
          "type": "uint256"
        },
        {
          "internalType": "string",
          "name": "_riderId",
          "type": "string"
        }
      ],
      "name": "addRequest",
      "outputs": [
        {
          "internalType": "uint256",
          "name": "",
          "type": "uint256"
        }
      ],
      "stateMutability": "payable",
      "type": "function"
    },
    {
      "inputs": [],
      "name": "addRider",
      "outputs": [],
      "stateMutability": "nonpayable",
      "type": "function"
    },
    {
      "inputs": [
        {
          "internalType": "uint256",
          "name": "_distance",
          "type": "uint256"
        },
        {
          "internalType": "uint256",
          "name": "_duration",
          "type": "uint256"
        }
      ],
      "name": "calcCost",
      "outputs": [
        {
          "internalType": "uint256",
          "name": "",
          "type": "uint256"
        }
      ],
      "stateMutability": "pure",
      "type": "function"
    },
    {
      "inputs": [],
      "name": "checkDriver",
      "outputs": [
        {
          "internalType": "bool",
          "name": "",
          "type": "bool"
        }
      ],
      "stateMutability": "view",
      "type": "function"
    },
    {
      "inputs": [],
      "name": "checkRider",
      "outputs": [
        {
          "internalType": "bool",
          "name": "",
          "type": "bool"
        }
      ],
      "stateMutability": "view",
      "type": "function"
    },
    {
      "inputs": [],
      "name": "driverCount",
      "outputs": [
        {
          "internalType": "uint256",
          "name": "",
          "type": "uint256"
        }
      ],
      "stateMutability": "view",
      "type": "function"
    },
    {
      "inputs": [
        {
          "internalType": "address",
          "name": "",
          "type": "address"
        }
      ],
      "name": "driverMapping",
      "outputs": [
        {
          "internalType": "uint256",
          "name": "",
          "type": "uint256"
        }
      ],
      "stateMutability": "view",
      "type": "function"
    },
    {
      "inputs": [],
      "name": "owner",
      "outputs": [
        {
          "internalType": "address",
          "name": "",
          "type": "address"
        }
      ],
      "stateMutability": "view",
      "type": "function"
    },
    {
      "inputs": [],
      "name": "renounceOwnership",
      "outputs": [],
      "stateMutability": "nonpayable",
      "type": "function"
    },
    {
      "inputs": [],
      "name": "requestCount",
      "outputs": [
        {
          "internalType": "uint256",
          "name": "",
          "type": "uint256"
        }
      ],
      "stateMutability": "view",
      "type": "function"
    },
    {
      "inputs": [
        {
          "internalType": "uint256",
          "name": "",
          "type": "uint256"
        }
      ],
      "name": "requestData",
      "outputs": [
        {
          "internalType": "address",
          "name": "requesterAddress",
          "type": "address"
        },
        {
          "internalType": "uint256",
          "name": "timestamp",
          "type": "uint256"
        },
        {
          "internalType": "uint256",
          "name": "cost",
          "type": "uint256"
        }
      ],
      "stateMutability": "view",
      "type": "function"
    },
    {
      "inputs": [],
      "name": "riderCount",
      "outputs": [
        {
          "internalType": "uint256",
          "name": "",
          "type": "uint256"
        }
      ],
      "stateMutability": "view",
      "type": "function"
    },
    {
      "inputs": [
        {
          "internalType": "address",
          "name": "",
          "type": "address"
        }
      ],
      "name": "riderMapping",
      "outputs": [
        {
          "internalType": "uint256",
          "name": "",
          "type": "uint256"
        }
      ],
      "stateMutability": "view",
      "type": "function"
    },
    {
      "inputs": [
        {
          "internalType": "address",
          "name": "newOwner",
          "type": "address"
        }
      ],
      "name": "transferOwnership",
      "outputs": [],
      "stateMutability": "nonpayable",
      "type": "function"
    }
  ],
  "bytecode": "0x608060405234801561001057600080fd5b5061002d61002261003260201b60201c565b61003a60201b60201c565b6100fe565b600033905090565b60008060009054906101000a900473ffffffffffffffffffffffffffffffffffffffff169050816000806101000a81548173ffffffffffffffffffffffffffffffffffffffff021916908373ffffffffffffffffffffffffffffffffffffffff1602179055508173ffffffffffffffffffffffffffffffffffffffff168173ffffffffffffffffffffffffffffffffffffffff167f8be0079c531659141344cd1fd0a4f28419497f9722a3daafe3b4186f6b6457e060405160405180910390a35050565b6115a98061010d6000396000f3fe6080604052600436106100f35760003560e01c8063715018a61161008a578063a5a13ddc11610059578063a5a13ddc146102fb578063d1bba99814610338578063f2fde38b14610363578063f359d66d1461038c576100f3565b8063715018a6146102655780638da5cb5b1461027c578063a3c684d7146102a7578063a43f4111146102d0576100f3565b806339bdac80116100c657806339bdac80146101b657806346990b69146101e657806358a4757c146101fd5780635badbe4c1461023a576100f3565b80630d6399ca146100f85780632adb9e3c146101355780632e7e34c914610174578063367412fa1461019f575b600080fd5b34801561010457600080fd5b5061011f600480360381019061011a9190610de6565b6103b7565b60405161012c9190611261565b60405180910390f35b34801561014157600080fd5b5061015c60048036038101906101579190610e0f565b6103cf565b60405161016b9392919061116f565b60405180910390f35b34801561018057600080fd5b50610189610419565b60405161019691906111a6565b60405180910390f35b3480156101ab57600080fd5b506101b4610473565b005b6101d060048036038101906101cb9190610edb565b6104d3565b6040516101dd9190611261565b60405180910390f35b3480156101f257600080fd5b506101fb6106a7565b005b34801561020957600080fd5b50610224600480360381019061021f9190610de6565b610707565b6040516102319190611261565b60405180910390f35b34801561024657600080fd5b5061024f61071f565b60405161025c9190611261565b60405180910390f35b34801561027157600080fd5b5061027a610725565b005b34801561028857600080fd5b506102916107ad565b60405161029e919061111d565b60405180910390f35b3480156102b357600080fd5b506102ce60048036038101906102c99190610e38565b6107d6565b005b3480156102dc57600080fd5b506102e5610ad3565b6040516102f29190611261565b60405180910390f35b34801561030757600080fd5b50610322600480360381019061031d9190610e9f565b610ad9565b60405161032f9190611261565b60405180910390f35b34801561034457600080fd5b5061034d610b30565b60405161035a91906111a6565b60405180910390f35b34801561036f57600080fd5b5061038a60048036038101906103859190610de6565b610b8a565b005b34801561039857600080fd5b506103a1610c82565b6040516103ae9190611261565b60405180910390f35b60026020528060005260406000206000915090505481565b60096020528060005260406000206000915090508060000160009054906101000a900473ffffffffffffffffffffffffffffffffffffffff16908060010154908060020154905083565b600080600260003373ffffffffffffffffffffffffffffffffffffffff1673ffffffffffffffffffffffffffffffffffffffff16815260200190815260200160002054111561046b5760019050610470565b600090505b90565b600660008154809291906104869061146f565b9190505550600654600360003373ffffffffffffffffffffffffffffffffffffffff1673ffffffffffffffffffffffffffffffffffffffff16815260200190815260200160002081905550565b60006104dd610b30565b61051c576040517f08c379a0000000000000000000000000000000000000000000000000000000008152600401610513906111c1565b60405180910390fd5b6008600081548092919061052f9061146f565b919050555060006105408585610ad9565b9050348114610584576040517f08c379a000000000000000000000000000000000000000000000000000000000815260040161057b90611201565b60405180910390fd5b346004846040516105959190611106565b908152602001604051809103902060003373ffffffffffffffffffffffffffffffffffffffff1673ffffffffffffffffffffffffffffffffffffffff16815260200190815260200160002060008282546105ef9190611304565b9250508190555060405180606001604052803373ffffffffffffffffffffffffffffffffffffffff1681526020014281526020018281525060096000600854815260200190815260200160002060008201518160000160006101000a81548173ffffffffffffffffffffffffffffffffffffffff021916908373ffffffffffffffffffffffffffffffffffffffff16021790555060208201518160010155604082015181600201559050506008549150509392505050565b600560008154809291906106ba9061146f565b9190505550600554600260003373ffffffffffffffffffffffffffffffffffffffff1673ffffffffffffffffffffffffffffffffffffffff16815260200190815260200160002081905550565b60036020528060005260406000206000915090505481565b60085481565b61072d610c88565b73ffffffffffffffffffffffffffffffffffffffff1661074b6107ad565b73ffffffffffffffffffffffffffffffffffffffff16146107a1576040517f08c379a000000000000000000000000000000000000000000000000000000000815260040161079890611241565b60405180910390fd5b6107ab6000610c90565b565b60008060009054906101000a900473ffffffffffffffffffffffffffffffffffffffff16905090565b6107de610419565b61081d576040517f08c379a000000000000000000000000000000000000000000000000000000000815260040161081490611221565b60405180910390fd5b600060048360405161082f9190611106565b908152602001604051809103902060008373ffffffffffffffffffffffffffffffffffffffff1673ffffffffffffffffffffffffffffffffffffffff1681526020019081526020016000205490503373ffffffffffffffffffffffffffffffffffffffff166108fc829081150290604051600060405180830381858888f193505050501580156108c3573d6000803e3d6000fd5b506001600760008282546108d79190611304565b92505081905550600160405180608001604052806009600088815260200190815260200160002060000160009054906101000a900473ffffffffffffffffffffffffffffffffffffffff1673ffffffffffffffffffffffffffffffffffffffff1681526020013373ffffffffffffffffffffffffffffffffffffffff1681526020014281526020016009600088815260200190815260200160002060020154815250908060018154018082558091505060019003906000526020600020906004020160009091909190915060008201518160000160006101000a81548173ffffffffffffffffffffffffffffffffffffffff021916908373ffffffffffffffffffffffffffffffffffffffff16021790555060208201518160010160006101000a81548173ffffffffffffffffffffffffffffffffffffffff021916908373ffffffffffffffffffffffffffffffffffffffff160217905550604082015181600201556060820151816003015550507fddf252ad1be2c89b69c2b068fc378daa952ba7f163c4a11628f55a4df523b3ef6009600086815260200190815260200160002060000160009054906101000a900473ffffffffffffffffffffffffffffffffffffffff16336009600088815260200190815260200160002060020154604051610ac593929190611138565b60405180910390a150505050565b60065481565b6000806608b313baabfb24905060006064601985610af7919061138b565b606087610b04919061138b565b610b0e9190611304565b610b18919061135a565b82610b239190611304565b9050809250505092915050565b600080600360003373ffffffffffffffffffffffffffffffffffffffff1673ffffffffffffffffffffffffffffffffffffffff168152602001908152602001600020541115610b825760019050610b87565b600090505b90565b610b92610c88565b73ffffffffffffffffffffffffffffffffffffffff16610bb06107ad565b73ffffffffffffffffffffffffffffffffffffffff1614610c06576040517f08c379a0000000000000000000000000000000000000000000000000000000008152600401610bfd90611241565b60405180910390fd5b600073ffffffffffffffffffffffffffffffffffffffff168173ffffffffffffffffffffffffffffffffffffffff161415610c76576040517f08c379a0000000000000000000000000000000000000000000000000000000008152600401610c6d906111e1565b60405180910390fd5b610c7f81610c90565b50565b60055481565b600033905090565b60008060009054906101000a900473ffffffffffffffffffffffffffffffffffffffff169050816000806101000a81548173ffffffffffffffffffffffffffffffffffffffff021916908373ffffffffffffffffffffffffffffffffffffffff1602179055508173ffffffffffffffffffffffffffffffffffffffff168173ffffffffffffffffffffffffffffffffffffffff167f8be0079c531659141344cd1fd0a4f28419497f9722a3daafe3b4186f6b6457e060405160405180910390a35050565b6000610d67610d62846112ad565b61127c565b905082815260208101848484011115610d7f57600080fd5b610d8a84828561142d565b509392505050565b600081359050610da181611545565b92915050565b600082601f830112610db857600080fd5b8135610dc8848260208601610d54565b91505092915050565b600081359050610de08161155c565b92915050565b600060208284031215610df857600080fd5b6000610e0684828501610d92565b91505092915050565b600060208284031215610e2157600080fd5b6000610e2f84828501610dd1565b91505092915050565b600080600060608486031215610e4d57600080fd5b6000610e5b86828701610dd1565b935050602084013567ffffffffffffffff811115610e7857600080fd5b610e8486828701610da7565b9250506040610e9586828701610d92565b9150509250925092565b60008060408385031215610eb257600080fd5b6000610ec085828601610dd1565b9250506020610ed185828601610dd1565b9150509250929050565b600080600060608486031215610ef057600080fd5b6000610efe86828701610dd1565b9350506020610f0f86828701610dd1565b925050604084013567ffffffffffffffff811115610f2c57600080fd5b610f3886828701610da7565b9150509250925092565b610f4b816113e5565b82525050565b610f5a816113f7565b82525050565b6000610f6b826112dd565b610f7581856112f9565b9350610f8581856020860161143c565b80840191505092915050565b6000610f9e6011836112e8565b91507f6e6f7420612076616c69642072696465720000000000000000000000000000006000830152602082019050919050565b6000610fde6026836112e8565b91507f4f776e61626c653a206e6577206f776e657220697320746865207a65726f206160008301527f64647265737300000000000000000000000000000000000000000000000000006020830152604082019050919050565b60006110446015836112e8565b91507f4e6f7420436f72726563742052696465204661726500000000000000000000006000830152602082019050919050565b60006110846012836112e8565b91507f6e6f7420612076616c69642064726976657200000000000000000000000000006000830152602082019050919050565b60006110c46020836112e8565b91507f4f776e61626c653a2063616c6c6572206973206e6f7420746865206f776e65726000830152602082019050919050565b61110081611423565b82525050565b60006111128284610f60565b915081905092915050565b60006020820190506111326000830184610f42565b92915050565b600060608201905061114d6000830186610f42565b61115a6020830185610f42565b61116760408301846110f7565b949350505050565b60006060820190506111846000830186610f42565b61119160208301856110f7565b61119e60408301846110f7565b949350505050565b60006020820190506111bb6000830184610f51565b92915050565b600060208201905081810360008301526111da81610f91565b9050919050565b600060208201905081810360008301526111fa81610fd1565b9050919050565b6000602082019050818103600083015261121a81611037565b9050919050565b6000602082019050818103600083015261123a81611077565b9050919050565b6000602082019050818103600083015261125a816110b7565b9050919050565b600060208201905061127660008301846110f7565b92915050565b6000604051905081810181811067ffffffffffffffff821117156112a3576112a2611516565b5b8060405250919050565b600067ffffffffffffffff8211156112c8576112c7611516565b5b601f19601f8301169050602081019050919050565b600081519050919050565b600082825260208201905092915050565b600081905092915050565b600061130f82611423565b915061131a83611423565b9250827fffffffffffffffffffffffffffffffffffffffffffffffffffffffffffffffff0382111561134f5761134e6114b8565b5b828201905092915050565b600061136582611423565b915061137083611423565b9250826113805761137f6114e7565b5b828204905092915050565b600061139682611423565b91506113a183611423565b9250817fffffffffffffffffffffffffffffffffffffffffffffffffffffffffffffffff04831182151516156113da576113d96114b8565b5b828202905092915050565b60006113f082611403565b9050919050565b60008115159050919050565b600073ffffffffffffffffffffffffffffffffffffffff82169050919050565b6000819050919050565b82818337600083830152505050565b60005b8381101561145a57808201518184015260208101905061143f565b83811115611469576000848401525b50505050565b600061147a82611423565b91507fffffffffffffffffffffffffffffffffffffffffffffffffffffffffffffffff8214156114ad576114ac6114b8565b5b600182019050919050565b7f4e487b7100000000000000000000000000000000000000000000000000000000600052601160045260246000fd5b7f4e487b7100000000000000000000000000000000000000000000000000000000600052601260045260246000fd5b7f4e487b7100000000000000000000000000000000000000000000000000000000600052604160045260246000fd5b61154e816113e5565b811461155957600080fd5b50565b61156581611423565b811461157057600080fd5b5056fea264697066735822122033471809cbfa8c53694dd232c0c6937e8e69ee368ff8220d7617f6227b28968364736f6c63430008000033",
  "linkReferences": {},
  "deployedLinkReferences": {}
}